:0200000080235B
:02000300806318
:02001300805F0C
:1000230001B175A000D2AF758920758DFD7598500B
:10003300D28ED2ACD2A8D2AAD288D28A75313275E6
:100043003231753330753430753530753630C2A47E
:10005300C2A7C2A6900282758089753000D2A3B26E
:10006300B4517680FAE4A393F580B49003900282AE
:1000730032ECFDEBFCEAFBE9FAE8F9A880E4900234
:100083008393F58011D1B2A70530E530B4061E3154
:1000930046ED31FFEC31FFEB31FFEA31FFE931FF90
:1000A300E831FF740D31FF740A31FF11F732319ECD
:1000B300B4501A319EF531319EF532319EF533310C
:1000C3009EF534319EF535319EF53631A632E53055
:1000D300B40003C29222B40103C29322B40203C246
:1000E3009422B40303C29522B40403C29622B40536
:1000F30002C29722ED8531F0B5F031EC8532F0B5CF
:10010300F02AEB8533F0B5F023EA8534F0B5F01C23
:10011300E98535F0B5F015E88536F0B5F00EC2A7E0
:10012300D2A65107516051605160800AC2A6D2A77E
:100133005160516080007530007590FF7580899023
:0A014300028222E8315FF8E9315F23
:10014D00F9EA315FFAEB315FFBEC315FFCED315FCA
:10015D00FD22B4C003743022B4F903743122B4A467
:10016D0003743222B4B003743322B499037434226D
:10017D00B49203743522B48203743622B4F8037436
:10018D003722B48003743822B49003743922743F3B
:10019D00223098FDE599C29822744E31FF74453195
:1001AD00FF745731FF742031FF745031FF744131AA
:1001BD00FF745331FF745331FF745731FF744F3156
:1001CD00FF745231FF744431FF743A31FF742031A2
:1001DD00FFE53131FFE53231FFE53331FFE53431F4
:1001ED00FFE53531FFE53631FF740D31FF740A310E
:1001FD00FF22F5993099FDC29922745031FF744157
:10020D0031FF745331FF745331FF745731FF744F05
:10021D0031FF745231FF744431FF742031FF744942
:10022D0031FF745331FF743A31FF742031FFE531E2
:10023D0031FFE53231FFE53331FFE53431FFE5358F
:10024D0031FFE53631FF742031FF740D31FF740A33
:0E025D0031FF22D2A45169C2A45169227F024E
:10026B007EFA7DFADDFEDEFADFF6227F047EFA7D72
:10027B00FADDFEDEFADFF622C0F9A4B0999282F81D
:02028B00809061
:00000001FF
