:10000000758920758DFD759850D28E900121E4C2BE
:10001000A4C2A7C2A6D2A3D2B2D2B37580897530CA
:1000200000800030B20530B31380F8C2A3E4A3937C
:10003000F5803115B490EC90012180E7EAFBE9FAF4
:10004000E8F9A880E490012293F58011A531150507
:1000500030E530B404CD900121D2A37590FF7580B6
:100060008911BF759920310FEBF599310FEAF59998
:10007000310FE9F599310FE8F599310FEBB43116ED
:10008000EAB43012E9B4300EE8B4300AC2A7D2A6FE
:1000900031153115800AC2A6D2A73115311580005D
:1000A0007530000123E530B40003C29222B401038D
:1000B000C29322B40203C29422B40302C29522E87E
:1000C00011D0F8E911D0F9EA11D0FAEB11D0FB22E6
:1000D000B4C003743022B4F903743122B4A403749D
:1000E0003222B4B003743322B49903743422B4922C
:1000F00003743522B48203743622B4F803743722B1
:10010000B48003743822B49003743922743F2230CF
:1001100099FDC299227F047EFA7DFADDFEDEFADFC8
:01012000F6E8
:0B01210022C0F9A4B0999282F88090EF
:00000001FF
