:0200000080235B
:02000300806714
:02001300806506
:1000230001BBD297D2AF758920758DFD759850D2DB
:100033008ED2ACD2A8D2AAC288C28A7531327532A6
:1000430031753330753430753530753630C2A7C2EB
:10005300A6D2A79002AD7590C6D297753000B2A60E
:1000630051A180FA310151A122518BE4A393F59060
:10007300B490039002AD32518BE530B40004A890E4
:100083008021B40104A990801AB40204AA908013B9
:10009300B40304AB90800CB40404AC908005B405A5
:1000A30002AD90E49002AE93F59011DB0530E5309C
:1000B300B40604317631013231CEB4231A31CEF590
:1000C3003131CEF53231CEF53331CEF53431CEF593
:1000D3003531CEF53631D632E530B40003C2A02235
:1000E300B40103C2A122B40203C2A222B40303C215
:1000F300A322B40403C2A422B40502C2A522516CF4
:10010300E88531F0B5F044E98532F0B5F03DEA8594
:1001130033F0B5F036EB8534F0B5F02FEC8535F0E0
:10012300B5F028ED8536F0B5F021D2A7D2A67590AB
:10013300C0C297518BD297518BC297518BD297C222
:10014300A651A151A151A1C2A7800D7590C6C29716
:10015300518BD297518B8000780079007A007B0015
:100163007C007D0075300075A03F7590C69002AD90
:10017300D2A722E8318FF8E9318FF9EA318FFAEB10
:10018300318FFBEC318FFCED318FFD22B4C0037452
:100193003022B4F903743122B4A403743222B4B00C
:1001A30003743322B49903743422B4920374352252
:1001B300B48203743622B4F803743722B480037410
:1001C3003822B49003743922743F223098FDE599A4
:1001D300C29822744E510B7445510B7457510B74D2
:1001E3003A510B7420510BE531510BE532510BE5BC
:1001F30033510BE534510BE535510BE536510B7497
:100203000D510B740A510B22F5993099FDC29922B5
:100213007450510B7441510B7453510B7453510B64
:100223007457510B744F510B7452510B7444510B4F
:100233007420510B7449510B7453510B743A510B85
:100243007420510BE531510BE532510BE533510B62
:10025300E534510BE535510BE536510B7420510B49
:10026300740D510B740A510B227453510BE8510B4B
:0A027300E9510BEA510BEB510BECC3
:10027D00510BED510B740D510B740A510B22C2A78A
:10028D005194D2A75194227F027EFA7DFADDFEDED3
:10029D00FADFF6227F047EFA7DFADDFEDEFADFF666
:0B02AD0022C0F9A4B0999282F8809062
:00000001FF
