:10000000758920758DFD759850D28EC2A4C2A7C285
:10001000A67531327532317533307534307590FFD5
:10002000D2A3D2B2D2B39001D3E4758089753000E7
:10003000800030B20A30B3183098F7312180DEC228
:10004000A3E4A393F58031B1B490E79001D380CDC0
:10005000EAFBE9FAE8F9A880E49001D493F580116D
:10006000B731B10530E530B404C811D1EB3192EAB3
:100070003192E93192E83192740D3192740A3192E1
:10008000EB8531F0B5F021EA8532F0B5F01AE9855B
:1000900033F0B5F013E88534F0B5F00CC2A7D2A662
:1000A00031B131B131B1800AC2A6D2A731B131B17B
:1000B0008000753000011DE530B40003C29222B407
:1000C0000103C29322B40203C29422B40302C29574
:1000D00022E811E2F8E911E2F9EA11E2FAEB11E2A1
:1000E000FB22B4C003743022B4F903743122B4A4E7
:1000F00003743222B4B003743322B49903743422EB
:10010000B49203743522B48203743622B4F80374B3
:100110003722B48003743822B49003743922743FB8
:08012000223139B450FB3139E2
:10012800F5313139F5323139F5333139F534314179
:10013800223098FDE599C29822744E319274453167
:1001480092745731927420319274503192744131C3
:1001580092745331927453319274573192744F316F
:10016800927452319274443192743A3192742031BB
:1001780092E5313192E5323192E5333192E534310D
:1001880092740D3192740A319222F5993099FDC218
:100198009922E5313192E5323192E5333192E534F5
:1001A80031927420319231C722D2A431BAC2A4311B
:1001B800BA227F027EFA7DFADDFEDEFADFF6227FC2
:1001C800047EFA7DFADDFEDEFADFF622C0F9A4B07D
:0601D800999282F880906C
:00000001FF
