:0200000080235B
:02000300806714
:02001300806506
:1000230001BBD297D2AF758920758DFD759850D2DB
:100033008ED2ACD2A8D2AAC288C28A7531327532A6
:1000430031753330753430753530753630C2A7C2EB
:10005300A6D2A79002B57590C6D297753000B2A606
:1000630051A980FA310151A9225193E4A393F59048
:10007300B490039002B5325193E530B40004A890D4
:100083008021B40104A990801AB40204AA908013B9
:10009300B40304AB90800CB40404AC908005B405A5
:1000A30002AD90E49002B693F59011DB0530E53094
:1000B300B40604317E31013231D6B4231A31D6F578
:1000C3003131D6F53231D6F53331D6F53431D6F573
:1000D3003531D6F53631DE32E530B40003C2A02225
:1000E300B40103C2A122B40203C2A222B40303C215
:1000F300A322B40403C2A422B40502C2A5225174EC
:10010300E88531F0B5F04AE98532F0B5F043EA8588
:1001130033F0B5F03CEB8534F0B5F035EC8535F0D4
:10012300B5F02EED8536F0B5F027D2A7D2A675909F
:10013300C051937590FF51937590C051937590FF83
:1001430051937590C0C2A651A951A951A9C2A780C4
:100153000F7590C651937590FF51937590C68000AB
:06016300780079007A002B
:100169007B007C007D0075300075A03F7590C690BE
:1001790002B5D2A722E83197F8E93197F9EA319720
:10018900FAEB3197FBEC3197FCED3197FD22B4C0C6
:1001990003743022B4F903743122B4A403743222F3
:1001A900B4B003743322B49903743422B49203743F
:1001B9003522B48203743622B4F803743722B4802A
:1001C90003743822B49003743922743F223098FDA5
:1001D900E599C29822744E511374455113745751BD
:1001E90013743A511374205113E5315113E5325107
:1001F90013E5335113E5345113E5355113E5365100
:1002090013740D5113740A511322F5993099FDC2D3
:1002190099227450511374415113745351137453E7
:10022900511374575113744F511374525113744429
:100239005113742051137449511374535113743A5F
:10024900511374205113E5315113E5325113E5333C
:100259005113E5345113E5355113E5365113742023
:100269005113740D5113740A51132274535113E825
:0B0279005113E95113EA5113EB51132C
:10028400EC5113ED5113740D5113740A511322C21E
:10029400A7519CD2A7519C227F027EFA7DFADDFEF3
:1002A400DEFADFF6227F047EFA7DFADDFEDEFADF77
:0C02B400F622C0F9A4B0999282F8809064
:00000001FF
