:10000000758920758DFD759850D28EC2A4C2A7C285
:10001000A67590FFD2A3D2B2D2B3900165E47580E9
:1000200089753000800030B20830B3163098F7314F
:100030000CC2A3E4A393F5803143B490E990016529
:1000400080E4EAFBE9FAE8F9A880E490016693F518
:100050008011A231430530E530B404CA11BC759952
:1000600020313DEBF599313DEAF599313DE9F599BE
:10007000313DE8F599313DEBB43118EAB43014E97B
:10008000B43010E8B4300CC2A7D2A63143314331AA
:1000900043800AC2A6D2A7314331438000753000A5
:1000A0000111E530B40003C29222B40103C29322CD
:1000B000B40203C29422B40302C29522E811CDF81F
:1000C000E911CDF9EA11CDFAEB11CDFB22B4C00351
:1000D000743022B4F903743122B4A403743222B40C
:1000E000B003743322B49903743422B49203743588
:1000F00022B48203743622B4F803743722B4800326
:10010000743822B49003743922743F223120B450E1
:0D011000FB3120F83120F93120FA3120FBBD
:10011D003128223098FDE599C29822E83135E93130
:10012D0035EA3135EB313522F5993099FDC29922F9
:10013D003099FDC29922D2A4314CC2A4314C227FF8
:10014D00027EFA7DFADDFEDEFADFF6227F047EFA0C
:10015D007DFADDFEDEFADFF622C0F9A4B0999282B7
:03016D00F8809087
:00000001FF
