:0200000080235B
:02000300806714
:02001300806506
:1000230001BBD297D2AF758920758DFD759850D2DB
:100033008ED2ACD2A8D2AAC288C28A7531327532A6
:1000430031753330753430753530753630D2A7C2DB
:10005300B7C2A69002D77590C6D297753000B2A6E4
:1000630051CB80FA11FF51CB2251B5E4A393F59004
:10007300B490039002D73251B5E530B40004A89090
:100083008021B40104A990801AB40204AA908013B9
:10009300B40304AB90800CB40404AC908005B405A5
:1000A30002AD90E49002D893F59011D90530E53074
:1000B300B40604317C11FF3231D4B4231831D4F5A2
:1000C3003131D4F53231D4F53331D4F53431D4F57B
:1000D3003531D4F53632E530B40003C2A022B40181
:1000E30003C2A122B40203C2A222B40303C2A32205
:1000F300B40403C2A422B40502C2A52251965196A8
:1001030051965196E88531F0B5F044E98532F0B562
:10011300F03DEA8533F0B5F036EB8534F0B5F02FDA
:10012300EC8535F0B5F028ED8536F0B5F021D2B782
:10013300D2A67590C0C29751B5D29751B5C2975107
:10014300B5D297C2A651CB51CB51CBC2B7800D7557
:1001530090C6C29751B5D29751B580007800790007
:100163007A007B007C007D0075300075A03FD2A72C
:100173007590C69002D7D2A722E83195F8E9319558
:10018300F9EA3195FAEB3195FBEC3195FCED3195BC
:10019300FD22B4C003743022B4F903743122B4A431
:1001A30003743222B4B003743322B4990374342237
:1001B300B49203743522B48203743622B4F8037400
:1001C3003722B48003743822B49003743922743F05
:1001D300223098FDE599C29822744E5135744551E9
:1001E300357457513574205135745051357441511C
:1001F30035745351357453513574575135744F51C8
:10020300357452513574445135743A513574205113
:1002130035E5315135E5325135E5335135E5345165
:1002230035E5355135E5365135740D5135740A517F
:100233003522F5993099FDC2992274505135744194
:100243005135745351357453513574575135744F77
:1002530051357452513574445135742051357449B4
:10026300513574535135743A513574205135E53154
:100273005135E5325135E5335135E5345135E53501
:100283005135E536513574205135740D5135740AA5
:1002930051352274535135E85135E95135EA513519
:1002A300EB5135EC5135ED5135740D5135740A511F
:1002B3003522C2A751BED2A751BE227F027EFA7D4C
:1002C300FADDFEDEFADFF6227F047EFA7DFADDFE3A
:0F02D300DEFADFF622C0F9A4B0999282F880908B
:00000001FF
