:0200000080235B
:02000300806714
:02001300806506
:1000230001BBD297D2AF758920758DFD759850D2DB
:100033008ED2ACD2A8D2AAC288C28A7531327532A6
:1000430031753330753430753530753630C2A7C2EB
:10005300A7C2A69002CD7590C6D297753000B2A6FE
:1000630051C180FA310151C12251ABE4A393F59000
:10007300B490039002CD3251ABE530B40004A890A4
:100083008021B40104A990801AB40204AA908013B9
:10009300B40304AB90800CB40404AC908005B405A5
:1000A30002AD90E49002CE93F59011DB0530E5307C
:1000B300B40604317231013231CAB4231A31CAF59C
:1000C3003131CAF53231CAF53331CAF53431CAF5A3
:1000D3003531CAF53631D232E530B40003C2A0223D
:1000E300B40103C2A122B40203C2A222B40303C215
:1000F300A322B40403C2A422B40502C2A522518CD4
:10010300E88531F0B5F042E98532F0B5F03BEA8598
:1001130033F0B5F034EB8534F0B5F02DEC8535F0E4
:10012300B5F026ED8536F0B5F01FD2A67590C05117
:1001330033C29751ABD29751ABC29751ABD297C24F
:10014300A651C151C151C1800D7590C6C29751AB23
:10015300D29751AB8000780079007A007B007C0055
:100163007D0075300075A03F7590C69002CD22E8E2
:10017300318BF8E9318BF9EA318BFAEB318BFBECFC
:10018300318BFCED318BFD22B4C003743022B4F902
:1001930003743122B4A403743222B4B0037433223F
:1001A300B49903743422B49203743522B482037471
:1001B3003622B4F803743722B48003743822B4901F
:1001C30003743922743F223098FDE599C298227452
:1001D3004E512B7445512B7457512B7420512B7452
:1001E30050512B7441512B7453512B7453512B7415
:1001F30057512B744F512B7452512B7444512B7400
:100203003A512B7420512BE531512BE532512BE51B
:1002130033512BE534512BE535512BE536512B74F6
:100223000D512B740A512B22F5993099FDC2992255
:100233007450512B7441512B7453512B7453512BC4
:100243007457512B744F512B7452512B7444512BAF
:100253007420512B7449512B7453512B743A512BE5
:100263007420512BE531512BE532512BE533512BC2
:10027300E534512BE535512BE536512B7420512BA9
:10028300740D512B740A512B227453512BE8512BAB
:10029300E9512BEA512BEB512BEC512BED512B74E4
:1002A3000D512B740A512B22C2A751B4D2A751B4BA
:1002B300227F027EFA7DFADDFEDEFADFF6227F047C
:1002C3007EFA7DFADDFEDEFADFF622C0F9A4B099EC
:0502D3009282F880900A
:00000001FF
