:10000000758920758DFD759850D28E9000FFE4C2E1
:10001000A4C2A7C2A6D2A3D2B2D2B37580897530CA
:1000200000800030B20530B31380F8C2A3E4A3937C
:10003000F58011F3B490EC9000FF80E7EAFBE9FA59
:10004000E8F9A880E490010093F58011F30530E50C
:1000500030B404CFD2A3758089119D75992011ED1C
:10006000EBF59911EDEAF59911EDE9F59911EDE846
:10007000F59911EDEBB43116EAB43012E9B4300E53
:10008000E8B4300AC2A7D2A611F311F3800AC2A6BF
:10009000D2A711F311F380007530008086E811AE0D
:1000A000F8E911AEF9EA11AEFAEB11AEFB22B4C0D9
:1000B00003743022B4F903743122B4A403743222DD
:1000C000B4B003743322B49903743422B492037429
:1000D0003522B48203743622B4F803743722B48014
:1000E00003743822B49003743922743F223099FD8E
:1000F000C299227F047EFA7DFADDFEDEFADFF62267
:0A010000C0F9A4B0999282F8809033
:00000001FF
