:0200000080235B
:02000300806714
:02001300806506
:1000230001BBD297D2AF758920758DFD759850D2DB
:100033008ED2ACD2A8D2AAC288C28A7531327532A6
:1000430031753330753430753530753630D2A7C2DB
:10005300B7C2A69002CF7590C6D297753000B2A6EC
:1000630051C380FA11FF51C32251ADE4A393F5901C
:10007300B490039002CF3251ADE530B40004A890A0
:100083008021B40104A990801AB40204AA908013B9
:10009300B40304AB90800CB40404AC908005B405A5
:1000A30002AD90E49002D093F59011D90530E5307C
:1000B300B40604317411FF3231CCB4231831CCF5BA
:1000C3003131CCF53231CCF53331CCF53431CCF59B
:1000D3003531CCF53632E530B40003C2A022B40189
:1000E30003C2A122B40203C2A222B40303C2A32205
:1000F300B40403C2A422B40502C2A522518EE8852A
:1001030031F0B5F044E98532F0B5F03DEA8533F0DE
:10011300B5F036EB8534F0B5F02FEC8535F0B5F05E
:1001230028ED8536F0B5F021D2B7D2A67590C0C2BE
:100133009751ADD29751ADC29751ADD297C2A65147
:10014300C351C351C3C2B7800D7590C6C29751AD99
:10015300D29751AD8000780079007A007B007C0053
:100163007D0075300075A03F7590C69002CFD2A771
:1001730022E8318DF8E9318DF9EA318DFAEB318DD1
:10018300FBEC318DFCED318DFD22B4C003743022C4
:10019300B4F903743122B4A403743222B4B00374E7
:1001A3003322B49903743422B49203743522B48293
:1001B30003743622B4F803743722B48003743822EC
:1001C300B49003743922743F223098FDE599C298A4
:1001D30022744E512D7445512D7457512D74205155
:1001E3002D7450512D7441512D7453512D7453510D
:1001F3002D7457512D744F512D7452512D744451F8
:100203002D743A512D7420512DE531512DE5325184
:100213002DE533512DE534512DE535512DE536517D
:100223002D740D512D740A512D22F5993099FDC26B
:1002330099227450512D7441512D7453512D74537F
:10024300512D7457512D744F512D7452512D7444A7
:10025300512D7420512D7449512D7453512D743ADD
:10026300512D7420512DE531512DE532512DE533BA
:10027300512DE534512DE535512DE536512D7420A1
:10028300512D740D512D740A512D227453512DE8A3
:10029300512DE9512DEA512DEB512DEC512DED51FD
:1002A3002D740D512D740A512D22C2A751B6D2A718
:1002B30051B6227F027EFA7DFADDFEDEFADFF622F8
:1002C3007F047EFA7DFADDFEDEFADFF622C0F9A4B2
:0702D300B0999282F88090BF
:00000001FF
