:0200000080235B
:02000300806714
:02001300806506
:1000230001BBD297D2AF758920758DFD759850D2DB
:100033008ED2ACD2A8D2AAC288C28A7531327532A6
:1000430031753330753430753530753630C2A7C2EB
:10005300A6D2A79002BC7590C6D297753000B2A6FF
:1000630051B080FA310151B022519AE4A393F59033
:10007300B490039002BC32519AE530B40004A890C6
:100083008021B40104A990801AB40204AA908013B9
:10009300B40304AB90800CB40404AC908005B405A5
:1000A30002AD90E49002BD93F59011DB0530E5308D
:1000B300B40604318031013231D8B4231A31D8F572
:1000C3003131D8F53231D8F53331D8F53431D8F56B
:1000D3003531D8F53631E032E530B40003C2A02221
:1000E300B40103C2A122B40203C2A222B40303C215
:1000F300A322B40403C2A422B40502C2A522E88544
:1001030031F0B5F04CE98532F0B5F045EA8533F0CE
:10011300B5F03EEB8534F0B5F037EC8535F0B5F04E
:1001230030ED8536F0B5F029517DD2A7D2A6759072
:10013300C0519A7590FF519A7590C0519A7590FF6E
:10014300519A7590C0C2A651B051B051B0C2A780A8
:1001530011515E7590C6519A7590FF519A7590C66C
:0601630080007800790025
:100169007A007B007C007D0075300075A03F75909A
:10017900C69002BCD2A722E83199F8E93199F9EA87
:100189003199FAEB3199FBEC3199FCED3199FD226A
:10019900B4C003743022B4F903743122B4A40374D3
:1001A9003222B4B003743322B49903743422B49262
:1001B90003743522B48203743622B4F803743722E7
:1001C900B48003743822B49003743922743F223006
:1001D90098FDE599C29822745331FD744E31FD742E
:1001E9004531FD745731FD742531FD742531FD7498
:1001F9002531FD22F5993099FDC29922745031FDBE
:10020900744131FD745331FD745331FD745731FD1F
:10021900744F31FD745231FD744431FD742031FD48
:10022900744931FD745331FD743A31FD742031FD47
:10023900E53131FDE53231FDE53331FDE53431FD9F
:10024900E53531FDE53631FD742031FD740D31FDA3
:10025900740A31FD22745331FDE831FDE931FDEABB
:1002690031FDEB31FDEC31FDED31FD740D31FD74E6
:080279000A31FD22745331FD2E
:10028100742531FD744331FD745231FD744331FDE8
:10029100745431FD742531FD22C2A751A3D2A75157
:1002A100A3227F027EFA7DFADDFEDEFADFF6227FEF
:1002B100047EFA7DFADDFEDEFADFF622C0F9A4B093
:0602C100999282F8809082
:00000001FF
