:0200000080235B
:02000300806714
:02001300806506
:1000230001BBD297D2AF758920758DFD759850D2DB
:100033008ED2ACD2A8D2AAC288C28A7531327532A6
:1000430031753330753430753530753630C2A7C2EB
:10005300A6D2A79002D87590C6D297753000B2A6E3
:1000630051CC80FA310151CC2251B6E4A393F590DF
:10007300B490039002D83251B6E530B40004A8908E
:100083008021B40104A990801AB40204AA908013B9
:10009300B40304AB90800CB40404AC908005B405A5
:1000A30002AD90E49002D993F59011DB0530E53071
:1000B300B40604318031013231D8B4231A31D8F572
:1000C3003131D8F53231D8F53331D8F53431D8F56B
:1000D3003531D8F53631E032E530B40003C2A02221
:1000E300B40103C2A122B40203C2A222B40303C215
:1000F300A322B40403C2A422B40502C2A522E88544
:1001030031F0B5F04CE98532F0B5F045EA8533F0CE
:10011300B5F03EEB8534F0B5F037EC8535F0B5F04E
:1001230030ED8536F0B5F0295195D2A7D2A675905A
:10013300C051B67590FF51B67590C051B67590FF1A
:1001430051B67590C0C2A651CC51CC51CCC2A78038
:100153001151767590C651B67590FF51B67590C61C
:0601630080007800790025
:100169007A007B007C007D0075300075A03F75909A
:10017900C69002D8D2A722E83199F8E93199F9EA6B
:100189003199FAEB3199FBEC3199FCED3199FD226A
:10019900B4C003743022B4F903743122B4A40374D3
:1001A9003222B4B003743322B49903743422B49262
:1001B90003743522B48203743622B4F803743722E7
:1001C900B48003743822B49003743922743F223006
:1001D90098FDE599C29822744E51157445511574CC
:1001E900575115743A511574205115E5315115E5DA
:1001F900325115E5335115E5345115E5355115E5FC
:10020900365115740D5115740A511522F599309905
:10021900FDC29922745051157441511574535115E9
:100229007453511574575115744F51157452511512
:10023900744451157420511574495115745351154D
:10024900743A511574205115E5315115E53251159E
:10025900E5335115E5345115E5355115E536511597
:1002690074205115740D5115740A51152274535186
:0B02790015E85115E95115EA5115EB8D
:100284005115EC5115ED5115740D5115740A511594
:10029400227453511574435115744F5115745251AE
:1002A40015745251157445511574435115745451B4
:1002B4001522C2A751BFD2A751BF227F027EFA7D69
:1002C400FADDFEDEFADFF6227F047EFA7DFADDFE39
:0F02D400DEFADFF622C0F9A4B0999282F880908A
:00000001FF
