:0200000080235B
:02000300806E0D
:02001300806A01
:1000230001BED2B6D2AF758920758DFD759850D2B9
:100033008ED2ACD2A8D2AAD288D28A753132753286
:1000430031753330753430753530753630C2B5C2DD
:10005300A7C2A69002A37590C6753000B2B730B49C
:100063000280F975300075A03F7590C69002A322F7
:10007300E4A393F590B490039002A332ECFDEBFC60
:10008300EAFBE9FAE8F9A890E49002A493F5901149
:10009300DE0530E530B40622316774535120ED514B
:1000A30020EC5120EB5120EA5120E95120E8512066
:1000B300740D5120740A512031043231BFB4231A14
:1000C30031BFF53131BFF53231BFF53331BFF534CF
:1000D30031BFF53531BFF53631C732E530B40003F2
:1000E300C2A022B40103C2A122B40203C2A222B459
:1000F3000303C2A322B40403C2A422B40502C2A50B
:1001030022ED8531F0B5F042EC8532F0B5F03BEBF2
:100113008533F0B5F034EA8534F0B5F02DE9853553
:10012300F0B5F026E88536F0B5F01FD2A67590C07D
:100133005128C2B65181D2B65181C2B65181D2B6CD
:0F014300C2A6519751975197800D7590C6C2B6BD
:100152005181D2B65181800075300075A03F7590F3
:10016200C69002A322E83180F8E93180F9EA3180B1
:10017200FAEB3180FBEC3180FCED3180FD22B4C022
:1001820003743022B4F903743122B4A4037432220A
:10019200B4B003743322B49903743422B492037456
:1001A2003522B48203743622B4F803743722B48041
:1001B20003743822B49003743922743F223098FDBC
:1001C200E599C29822744E512074455120745751BA
:1001D2002074205120745051207441512074535185
:1001E200207453512074575120744F51207452512E
:1001F2002074445120743A512074205120E5315129
:1002020020E5325120E5335120E5345120E53551C6
:1002120020E5365120740D5120740A512022F5999F
:100222003099FDC299227450512074415120745367
:1002320051207453512074575120744F51207452DD
:100242005120744451207420512074495120745318
:100252005120743A512074205120E5315120E53269
:100262005120E5335120E5345120E5355120E53662
:10027200512074205120740D5120740A512022D231
:10028200B5518AC2B5518A227F027EFA7DFADDFE1D
:10029200DEFADFF6227F047EFA7DFADDFEDEFADF89
:0C02A200F622C0F9A4B0999282F8809076
:00000001FF
