:10000000758920758DFD759850D28EC2A4C2A7C285
:10001000A67531327532317533307534307590FFD5
:10002000D2A3D2B2D2B390020FE4758089753000AA
:10003000800030B20A30B3183098F7312380DEC226
:10004000A3E4A393F58031EDB490E790020F80E232
:10005000EAFBE9FAE8F9A880E490021093F5801130
:10006000B931ED0530E530B404C811D3EB3194EA71
:100070003194E93194E83194740D3194740A3194D7
:10008000EB8531F0B5F023EA8532F0B5F01CE98557
:1000900033F0B5F015E88534F0B5F00EC2A7D2A65E
:1000A000319C31ED31ED31ED800AC2A6D2A731EDA0
:1000B00031ED8000753000011DE530B40003C292BF
:1000C00022B40103C29322B40203C29422B40302F5
:1000D000C29522E811E4F8E911E4F9EA11E4FAEB37
:1000E00011E4FB22B4C003743022B4F9037431224A
:1000F000B4A403743222B4B003743322B4990374E9
:100100003422B49203743522B48203743622B4F8D4
:1001100003743722B48003743822B49003743922F4
:08012000743F22313BB450FB97
:10012800313BF531313BF532313BF533313BF53479
:100138003143223098FDE599C29822744E31947467
:1001480045319474573194742031947450319474B7
:100158004131947453319474533194745731947475
:100168004F31947452319474443194743A31947484
:10017800203194E5313194E5323194E5333194E519
:10018800343194740D3194740A319422F59930996C
:10019800FDC299227450319474413194745331944E
:1001A8007453319474573194744F31947452319418
:1001B8007444319474203194744931947453319453
:1001C800743A319474203194E5313194E5323194A4
:1001D800E5333194E534319474203194740D3194BD
:1001E800740A319422D2A431F6C2A431F6227F02D5
:1001F8007EFA7DFADDFEDEFADFF6227F047EFA7DE6
:10020800FADDFEDEFADFF622C0F9A4B0999282F890
:020218008090D4
:00000001FF
