:0200000080235B
:0200030080700B
:02001300806CFF
:1000230001C0D297D2AF758920758DFD759850D2D6
:100033008ED2ACD2A8D2AAD288D28A753132753286
:1000430031753330753430753530753630C2B5C2DD
:10005300A7C2A69002A5759000D297753000B2B7DB
:1000630030B40280F975300075A03F7590C69002D8
:10007300A522E4A393F590B490039002A532ECFD7E
:10008300EBFCEAFBE9FAE8F9A890E49002A693F501
:100093009011E00530E530B40622316974535122E2
:1000A300ED5122EC5122EB5122EA5122E95122E88F
:1000B3005122740D5122740A512231063231C1B4D6
:1000C300231A31C1F53131C1F53231C1F53331C1B3
:1000D300F53431C1F53531C1F53631C932E530B4C6
:1000E3000003C2A022B40103C2A122B40203C2A22C
:1000F30022B40303C2A322B40403C2A422B405029C
:10010300C2A522ED8531F0B5F042EC8532F0B5F0B1
:100113003BEB8533F0B5F034EA8534F0B5F02DE9E7
:100123008535F0B5F026E88536F0B5F01FD2A67513
:1001330090C0512AC2975183D2975183C29751835A
:0F014300D297C2A6519951995199800D7590C6C6
:10015200C2975183D2975183800075300075A03FBA
:100162007590C69002A522E83182F8E93182F9EA57
:100172003182FAEB3182FBEC3182FCED3182FD22DD
:10018200B4C003743022B4F903743122B4A40374EA
:100192003222B4B003743322B49903743422B49279
:1001A20003743522B48203743622B4F803743722FE
:1001B200B48003743822B49003743922743F22301D
:1001C20098FDE599C29822744E51227445512274C9
:1001D2005751227420512274505122744151227479
:1001E2005351227453512274575122744F51227425
:1001F20052512274445122743A512274205122E500
:10020200315122E5325122E5335122E5345122E5C2
:10021200355122E5365122740D5122740A5122229F
:10022200F5993099FDC2992274505122744151229C
:10023200745351227453512274575122744F5122D4
:100242007452512274445122742051227449512211
:1002520074535122743A512274205122E5315122B1
:10026200E5325122E5335122E5345122E53551225E
:10027200E536512274205122740D5122740A512202
:1002820022D2B5518CC2B5518C227F027EFA7DFA00
:10029200DDFEDEFADFF6227F047EFA7DFADDFEDE87
:0E02A200FADFF622C0F9A4B0999282F880909B
:00000001FF
