:0200000080235B
:02000300806615
:02001300806407
:1000230001BAD297D2AF758920758DFD759850D2DC
:100033008ED2ACD2A8D2AAD288D28A753132753286
:1000430031753330753430753530753630C2B5C2DD
:10005300A7C2A69002CC7590C6D297753000B2B7EE
:1000630030B40280F9310022E4A393F590B49003F5
:100073009002CC51C032E530B40004A8908021B482
:100083000104A990801AB40204AA908013B4030453
:10009300AB90800CB40404AC908005B40502AD9021
:1000A300E49002CD93F59011DA0530E530B40604FF
:1000B3003171310051C03231C9B4231A31C9F5311C
:1000C30031C9F53231C9F53331C9F53431C9F535A3
:1000D30031C9F53631D132E530B40003C2A022B4C0
:1000E3000103C2A122B40203C2A222B40303C2A326
:1000F30022B40403C2A422B40502C2A522518BE890
:100103008531F0B5F042E98532F0B5F03BEA85334D
:10011300F0B5F034EB8534F0B5F02DEC8535F0B562
:10012300F026ED8536F0B5F01FD2A67590C051329A
:10013300C29751AAD29751AAC29751AAD297C2A6DF
:1001430051C051C051C0800D7590C6C29751AAD2FB
:100153009751AA8000780079007A007B007C007DAB
:01016300009B
:1001640075300075A03F7590C69002CC22E8318AA4
:10017400F8E9318AF9EA318AFAEB318AFBEC318AFF
:10018400FCED318AFD22B4C003743022B4F9037447
:100194003122B4A403743222B4B003743322B49968
:1001A40003743422B49203743522B4820374362265
:1001B400B4F803743722B48003743822B4900374FF
:1001C4003922743F223098FDE599C29822744E5129
:1001D4002A7445512A7457512A7420512A74505153
:1001E4002A7441512A7453512A7453512A74575111
:1001F4002A744F512A7452512A7444512A743A5120
:100204002A7420512AE531512AE532512AE5335125
:100214002AE534512AE535512AE536512A740D511F
:100224002A740A512A22F5993099FDC299227450F0
:10023400512A7441512A7453512A7453512A7457C0
:10024400512A744F512A7452512A7444512A7420E9
:10025400512A7449512A7453512A743A512A7420E8
:10026400512AE531512AE532512AE533512AE53440
:10027400512AE535512AE536512A7420512A740D44
:10028400512A740A512A227453512AE8512AE951F5
:100294002AEA512AEB512AEC512AED512A740D51C4
:1002A4002A740A512A22D2B551B3C2B551B3227F5E
:1002B400027EFA7DFADDFEDEFADFF6227F047EFAA4
:1002C4007DFADDFEDEFADFF622C0F9A4B09992824F
:0302D400F880901F
:00000001FF
